{
  "contractName": "M8BountyFactory",
  "abi": [
    {
      "constant": true,
      "inputs": [],
      "name": "m8",
      "outputs": [
        {
          "name": "",
          "type": "address"
        }
      ],
      "payable": false,
      "stateMutability": "view",
      "type": "function"
    },
    {
      "constant": true,
      "inputs": [
        {
          "name": "",
          "type": "uint256"
        }
      ],
      "name": "deployedBounties",
      "outputs": [
        {
          "name": "",
          "type": "address"
        }
      ],
      "payable": false,
      "stateMutability": "view",
      "type": "function"
    },
    {
      "inputs": [
        {
          "name": "_m8Address",
          "type": "address"
        }
      ],
      "payable": false,
      "stateMutability": "nonpayable",
      "type": "constructor"
    },
    {
      "anonymous": false,
      "inputs": [
        {
          "indexed": false,
          "name": "queryID",
          "type": "uint256"
        },
        {
          "indexed": false,
          "name": "site",
          "type": "string"
        },
        {
          "indexed": false,
          "name": "bountyAddress",
          "type": "address"
        }
      ],
      "name": "BountyCreated",
      "type": "event"
    },
    {
      "anonymous": false,
      "inputs": [
        {
          "indexed": false,
          "name": "",
          "type": "bytes32"
        }
      ],
      "name": "QuestionKeyEvent",
      "type": "event"
    },
    {
      "constant": false,
      "inputs": [
        {
          "name": "_questionId",
          "type": "uint256"
        },
        {
          "name": "_site",
          "type": "string"
        }
      ],
      "name": "isValidQuestion",
      "outputs": [],
      "payable": true,
      "stateMutability": "payable",
      "type": "function"
    },
    {
      "constant": false,
      "inputs": [
        {
          "name": "queryID",
          "type": "bytes32"
        },
        {
          "name": "result",
          "type": "string"
        }
      ],
      "name": "__callback",
      "outputs": [],
      "payable": false,
      "stateMutability": "nonpayable",
      "type": "function"
    },
    {
      "constant": false,
      "inputs": [
        {
          "name": "myid",
          "type": "bytes32"
        },
        {
          "name": "result",
          "type": "string"
        },
        {
          "name": "proof",
          "type": "bytes"
        }
      ],
      "name": "__callback",
      "outputs": [],
      "payable": false,
      "stateMutability": "nonpayable",
      "type": "function"
    },
    {
      "constant": false,
      "inputs": [
        {
          "name": "_questionId",
          "type": "uint256"
        },
        {
          "name": "_site",
          "type": "string"
        }
      ],
      "name": "createBounty",
      "outputs": [],
      "payable": true,
      "stateMutability": "payable",
      "type": "function"
    },
    {
      "constant": true,
      "inputs": [],
      "name": "getDeployedBounties",
      "outputs": [
        {
          "name": "",
          "type": "address[]"
        }
      ],
      "payable": false,
      "stateMutability": "view",
      "type": "function"
    },
    {
      "constant": true,
      "inputs": [
        {
          "name": "_questionId",
          "type": "uint256"
        },
        {
          "name": "_site",
          "type": "string"
        }
      ],
      "name": "makeQuestionKey",
      "outputs": [
        {
          "name": "",
          "type": "bytes32"
        }
      ],
      "payable": false,
      "stateMutability": "pure",
      "type": "function"
    }
  ],
  "bytecode": "0x6060604052341561000f57600080fd5b6040516020806154e38339810160405280805190602001909190505080600560006101000a81548173ffffffffffffffffffffffffffffffffffffffff021916908373ffffffffffffffffffffffffffffffffffffffff160217905550600560009054906101000a900473ffffffffffffffffffffffffffffffffffffffff1673ffffffffffffffffffffffffffffffffffffffff166340c10f193060646000604051602001526040518363ffffffff167c0100000000000000000000000000000000000000000000000000000000028152600401808373ffffffffffffffffffffffffffffffffffffffff1673ffffffffffffffffffffffffffffffffffffffff16815260200182815260200192505050602060405180830381600087803b151561013a57600080fd5b6102c65a03f1151561014b57600080fd5b50505060405180519050505061537d806101666000396000f30060606040526004361062000097576000357c0100000000000000000000000000000000000000000000000000000000900463ffffffff16806327dc297e146200009c57806338bbfa5014620001095780633a6f38b214620001b95780636bc7acb414620002165780636e174292146200026e57806394a785bd14620002f35780639d3a400a1462000350578063a0bf29fa14620003bf575b600080fd5b3415620000a857600080fd5b6200010760048080356000191690602001909190803590602001908201803590602001908080601f0160208091040260200160405190810160405280939291908181526020018383808284378201915050505050509190505062000425565b005b34156200011557600080fd5b620001b760048080356000191690602001909190803590602001908201803590602001908080601f0160208091040260200160405190810160405280939291908181526020018383808284378201915050505050509190803590602001908201803590602001908080601f016020809104026020016040519081016040528093929190818152602001838380828437820191505050505050919050506200062f565b005b62000214600480803590602001909190803590602001908201803590602001908080601f0160208091040260200160405190810160405280939291908181526020018383808284378201915050505050509190505062000634565b005b34156200022257600080fd5b6200022c6200098b565b604051808273ffffffffffffffffffffffffffffffffffffffff1673ffffffffffffffffffffffffffffffffffffffff16815260200191505060405180910390f35b34156200027a57600080fd5b620002d5600480803590602001909190803590602001908201803590602001908080601f01602080910402602001604051908101604052809392919081815260200183838082843782019150505050505091905050620009b1565b60405180826000191660001916815260200191505060405180910390f35b6200034e600480803590602001909190803590602001908201803590602001908080601f0160208091040260200160405190810160405280939291908181526020018383808284378201915050505050509190505062000a7f565b005b34156200035c57600080fd5b6200036662000c70565b6040518080602001828103825283818151815260200191508051906020019060200280838360005b83811015620003ab5780820151818401526020810190506200038e565b505050509050019250505060405180910390f35b3415620003cb57600080fd5b620003e3600480803590602001909190505062000d08565b604051808273ffffffffffffffffffffffffffffffffffffffff1673ffffffffffffffffffffffffffffffffffffffff16815260200191505060405180910390f35b60006200043162002415565b6000806200043e62000d48565b73ffffffffffffffffffffffffffffffffffffffff163373ffffffffffffffffffffffffffffffffffffffff161415156200047857600080fd5b62000483856200106b565b93506008600087600019166000191681526020019081526020016000206000018054600181600116156101000203166002900480601f0160208091040260200160405190810160405280929190818152602001828054600181600116156101000203166002900480156200053b5780601f106200050f576101008083540402835291602001916200053b565b820191906000526020600020905b8154815290600101906020018083116200051d57829003601f168201915b505050505092506008600087600019166000191681526020019081526020016000206001015491506008600087600019166000191681526020019081526020016000206000808201600062000591919062002429565b6001820160009055505060008411156200062757620005b18284620009b1565b9050600160076000836000191660001916815260200190815260200160002060006101000a81548160ff0219169083151502179055507fa1a9abe513252b30a371e7ba4388c3ceb9d826339607973e0af5237d023e00dd8160405180826000191660001916815260200191505060405180910390a15b505050505050565b505050565b600080600084141580156200064b57506000835114155b15156200065757600080fd5b620006638484620009b1565b91508383600560009054906101000a900473ffffffffffffffffffffffffffffffffffffffff166200069462002475565b80848152602001806020018373ffffffffffffffffffffffffffffffffffffffff1673ffffffffffffffffffffffffffffffffffffffff168152602001828103825284818151815260200191508051906020019080838360005b838110156200070b578082015181840152602081019050620006ee565b50505050905090810190601f168015620007395780820380516001836020036101000a031916815260200191505b50945050505050604051809103906000f08015156200075757600080fd5b9050600560009054906101000a900473ffffffffffffffffffffffffffffffffffffffff1673ffffffffffffffffffffffffffffffffffffffff1663a9059cbb82600a6000604051602001526040518363ffffffff167c0100000000000000000000000000000000000000000000000000000000028152600401808373ffffffffffffffffffffffffffffffffffffffff1673ffffffffffffffffffffffffffffffffffffffff16815260200182815260200192505050602060405180830381600087803b15156200082857600080fd5b6102c65a03f115156200083a57600080fd5b5050506040518051905050600680548060010182816200085b919062002486565b9160005260206000209001600083909190916101000a81548173ffffffffffffffffffffffffffffffffffffffff021916908373ffffffffffffffffffffffffffffffffffffffff160217905550507fda7373fb6daae5155a03e1cf39a2bfb2fa01f4dea774f507efd8634a14e88b7384848360405180848152602001806020018373ffffffffffffffffffffffffffffffffffffffff1673ffffffffffffffffffffffffffffffffffffffff168152602001828103825284818151815260200191508051906020019080838360005b83811015620009485780820151818401526020810190506200092b565b50505050905090810190601f168015620009765780820380516001836020036101000a031916815260200191505b5094505050505060405180910390a150505050565b600560009054906101000a900473ffffffffffffffffffffffffffffffffffffffff1681565b6000620009bd62002415565b600062000a0b620009ce8662001081565b6040805190810160405280600181526020017f2c0000000000000000000000000000000000000000000000000000000000000081525086620011e2565b9150816040518082805190602001908083835b60208310151562000a45578051825260208201915060208101905060208303925062000a1e565b6001836020036101000a03801982511681845116808217855250505050505090500191505060405180910390209050809250505092915050565b62000a8962002415565b600080841415801562000a9e57506000835114155b151562000aaa57600080fd5b62000b53606060405190810160405280602c81526020017f68747470733a2f2f6170692e737461636b65786368616e67652e636f6d2f322e81526020017f322f7175657374696f6e732f000000000000000000000000000000000000000081525062000b168662001081565b6040805190810160405280600681526020017f3f736974653d00000000000000000000000000000000000000000000000000008152508662001224565b915062000c106040805190810160405280600381526020017f55524c000000000000000000000000000000000000000000000000000000000081525062000c066040805190810160405280600581526020017f6a736f6e28000000000000000000000000000000000000000000000000000000815250856040805190810160405280601781526020017f292e6974656d732e302e6372656174696f6e5f64617465000000000000000000815250620011e2565b6207a12062001257565b905082600860008360001916600019168152602001908152602001600020600001908051906020019062000c46929190620024b5565b50836008600083600019166000191681526020019081526020016000206001018190555050505050565b62000c7a6200253c565b600680548060200260200160405190810160405280929190818152602001828054801562000cfe57602002820191906000526020600020905b8160009054906101000a900473ffffffffffffffffffffffffffffffffffffffff1673ffffffffffffffffffffffffffffffffffffffff168152602001906001019080831162000cb3575b5050505050905090565b60068181548110151562000d1857fe5b90600052602060002090016000915054906101000a900473ffffffffffffffffffffffffffffffffffffffff1681565b6000806000809054906101000a900473ffffffffffffffffffffffffffffffffffffffff1673ffffffffffffffffffffffffffffffffffffffff16148062000dbb5750600062000db96000809054906101000a900473ffffffffffffffffffffffffffffffffffffffff16620017c1565b145b1562000dcf5762000dcd6000620017cc565b505b6000809054906101000a900473ffffffffffffffffffffffffffffffffffffffff1673ffffffffffffffffffffffffffffffffffffffff166338cc48316000604051602001526040518163ffffffff167c0100000000000000000000000000000000000000000000000000000000028152600401602060405180830381600087803b151562000e5d57600080fd5b6102c65a03f1151562000e6f57600080fd5b5050506040518051905073ffffffffffffffffffffffffffffffffffffffff16600160009054906101000a900473ffffffffffffffffffffffffffffffffffffffff1673ffffffffffffffffffffffffffffffffffffffff1614151562000fbb576000809054906101000a900473ffffffffffffffffffffffffffffffffffffffff1673ffffffffffffffffffffffffffffffffffffffff166338cc48316000604051602001526040518163ffffffff167c0100000000000000000000000000000000000000000000000000000000028152600401602060405180830381600087803b151562000f5e57600080fd5b6102c65a03f1151562000f7057600080fd5b50505060405180519050600160006101000a81548173ffffffffffffffffffffffffffffffffffffffff021916908373ffffffffffffffffffffffffffffffffffffffff1602179055505b600160009054906101000a900473ffffffffffffffffffffffffffffffffffffffff1673ffffffffffffffffffffffffffffffffffffffff1663c281d19e6000604051602001526040518163ffffffff167c0100000000000000000000000000000000000000000000000000000000028152600401602060405180830381600087803b15156200104a57600080fd5b6102c65a03f115156200105c57600080fd5b50505060405180519050905090565b60006200107a826000620017df565b9050919050565b6200108b62002415565b6000806200109862002550565b600080861415620010e1576040805190810160405280600181526020017f30000000000000000000000000000000000000000000000000000000000000008152509450620011d9565b8593505b6000841415156200110e578280600101935050600a848115156200110557fe5b049350620010e5565b826040518059106200111d5750595b9080825280601f01601f191660200182016040525091506001830390505b600086141515620011d557600a868115156200115357fe5b066030017f0100000000000000000000000000000000000000000000000000000000000000028282806001900393508151811015156200118f57fe5b9060200101907effffffffffffffffffffffffffffffffffffffffffffffffffffffffffffff1916908160001a905350600a86811515620011cc57fe5b0495506200113b565b8194505b50505050919050565b620011ec62002415565b6200121b8484846020604051908101604052806000815250602060405190810160405280600081525062001ae9565b90509392505050565b6200122e62002415565b6200124d85858585602060405190810160405280600081525062001ae9565b9050949350505050565b60008060008060009054906101000a900473ffffffffffffffffffffffffffffffffffffffff1673ffffffffffffffffffffffffffffffffffffffff161480620012cc57506000620012ca6000809054906101000a900473ffffffffffffffffffffffffffffffffffffffff16620017c1565b145b15620012e057620012de6000620017cc565b505b6000809054906101000a900473ffffffffffffffffffffffffffffffffffffffff1673ffffffffffffffffffffffffffffffffffffffff166338cc48316000604051602001526040518163ffffffff167c0100000000000000000000000000000000000000000000000000000000028152600401602060405180830381600087803b15156200136e57600080fd5b6102c65a03f115156200138057600080fd5b5050506040518051905073ffffffffffffffffffffffffffffffffffffffff16600160009054906101000a900473ffffffffffffffffffffffffffffffffffffffff1673ffffffffffffffffffffffffffffffffffffffff16141515620014cc576000809054906101000a900473ffffffffffffffffffffffffffffffffffffffff1673ffffffffffffffffffffffffffffffffffffffff166338cc48316000604051602001526040518163ffffffff167c0100000000000000000000000000000000000000000000000000000000028152600401602060405180830381600087803b15156200146f57600080fd5b6102c65a03f115156200148157600080fd5b50505060405180519050600160006101000a81548173ffffffffffffffffffffffffffffffffffffffff021916908373ffffffffffffffffffffffffffffffffffffffff1602179055505b600160009054906101000a900473ffffffffffffffffffffffffffffffffffffffff1673ffffffffffffffffffffffffffffffffffffffff16632ef3accc86856000604051602001526040518363ffffffff167c01000000000000000000000000000000000000000000000000000000000281526004018080602001838152602001828103825284818151815260200191508051906020019080838360005b83811015620015885780820151818401526020810190506200156b565b50505050905090810190601f168015620015b65780820380516001836020036101000a031916815260200191505b509350505050602060405180830381600087803b1515620015d657600080fd5b6102c65a03f11515620015e857600080fd5b505050604051805190509050823a02670de0b6b3a764000001811115620016165760006001029150620017b9565b600160009054906101000a900473ffffffffffffffffffffffffffffffffffffffff1673ffffffffffffffffffffffffffffffffffffffff1663c51be90f8260008888886000604051602001526040518663ffffffff167c0100000000000000000000000000000000000000000000000000000000028152600401808581526020018060200180602001848152602001838103835286818151815260200191508051906020019080838360005b83811015620016e0578082015181840152602081019050620016c3565b50505050905090810190601f1680156200170e5780820380516001836020036101000a031916815260200191505b50838103825285818151815260200191508051906020019080838360005b83811015620017495780820151818401526020810190506200172c565b50505050905090810190601f168015620017775780820380516001836020036101000a031916815260200191505b5096505050505050506020604051808303818588803b15156200179957600080fd5b6125ee5a03f11515620017ab57600080fd5b505050506040518051905091505b509392505050565b6000813b9050919050565b6000620017d862001f46565b9050919050565b6000620017eb62002550565b60008060008693506000925060009150600090505b835181101562001ac95760307f01000000000000000000000000000000000000000000000000000000000000000284828151811015156200183d57fe5b9060200101517f010000000000000000000000000000000000000000000000000000000000000090047f0100000000000000000000000000000000000000000000000000000000000000027effffffffffffffffffffffffffffffffffffffffffffffffffffffffffffff19161015801562001957575060397f0100000000000000000000000000000000000000000000000000000000000000028482815181101515620018e757fe5b9060200101517f010000000000000000000000000000000000000000000000000000000000000090047f0100000000000000000000000000000000000000000000000000000000000000027effffffffffffffffffffffffffffffffffffffffffffffffffffffffffffff191611155b1562001a0e5781156200197e576000861415620019745762001ac9565b8580600190039650505b600a83029250603084828151811015156200199557fe5b9060200101517f010000000000000000000000000000000000000000000000000000000000000090047f0100000000000000000000000000000000000000000000000000000000000000027f01000000000000000000000000000000000000000000000000000000000000009004038301925062001abb565b602e7f010000000000000000000000000000000000000000000000000000000000000002848281518110151562001a4157fe5b9060200101517f010000000000000000000000000000000000000000000000000000000000000090047f0100000000000000000000000000000000000000000000000000000000000000027effffffffffffffffffffffffffffffffffffffffffffffffffffffffffffff1916141562001aba57600191505b5b808060010191505062001800565b600086111562001adc5785600a0a830292505b8294505050505092915050565b62001af362002415565b62001afd62002550565b62001b0762002550565b62001b1162002550565b62001b1b62002550565b62001b2562002550565b62001b2f62002415565b62001b3962002550565b6000808e98508d97508c96508b95508a94508451865188518a518c510101010160405180591062001b675750595b9080825280601f01601f1916602001820160405250935083925060009150600090505b885181101562001c4157888181518110151562001ba357fe5b9060200101517f010000000000000000000000000000000000000000000000000000000000000090047f010000000000000000000000000000000000000000000000000000000000000002838380600101945081518110151562001c0357fe5b9060200101907effffffffffffffffffffffffffffffffffffffffffffffffffffffffffffff1916908160001a905350808060010191505062001b8a565b600090505b875181101562001cfd57878181518110151562001c5f57fe5b9060200101517f010000000000000000000000000000000000000000000000000000000000000090047f010000000000000000000000000000000000000000000000000000000000000002838380600101945081518110151562001cbf57fe5b9060200101907effffffffffffffffffffffffffffffffffffffffffffffffffffffffffffff1916908160001a905350808060010191505062001c46565b600090505b865181101562001db957868181518110151562001d1b57fe5b9060200101517f010000000000000000000000000000000000000000000000000000000000000090047f010000000000000000000000000000000000000000000000000000000000000002838380600101945081518110151562001d7b57fe5b9060200101907effffffffffffffffffffffffffffffffffffffffffffffffffffffffffffff1916908160001a905350808060010191505062001d02565b600090505b855181101562001e7557858181518110151562001dd757fe5b9060200101517f010000000000000000000000000000000000000000000000000000000000000090047f010000000000000000000000000000000000000000000000000000000000000002838380600101945081518110151562001e3757fe5b9060200101907effffffffffffffffffffffffffffffffffffffffffffffffffffffffffffff1916908160001a905350808060010191505062001dbe565b600090505b845181101562001f3157848181518110151562001e9357fe5b9060200101517f010000000000000000000000000000000000000000000000000000000000000090047f010000000000000000000000000000000000000000000000000000000000000002838380600101945081518110151562001ef357fe5b9060200101907effffffffffffffffffffffffffffffffffffffffffffffffffffffffffffff1916908160001a905350808060010191505062001e7a565b82995050505050505050505095945050505050565b60008062001f68731d3b2638a7cc9f2cb3d298a3da7a90b67e5506ed620017c1565b11156200200d57731d3b2638a7cc9f2cb3d298a3da7a90b67e5506ed6000806101000a81548173ffffffffffffffffffffffffffffffffffffffff021916908373ffffffffffffffffffffffffffffffffffffffff160217905550620020036040805190810160405280600b81526020017f6574685f6d61696e6e6574000000000000000000000000000000000000000000815250620023f9565b60019050620023f6565b60006200202e73c03a2615d5efaf5f49f60b7bb6583eaec212fdf1620017c1565b1115620020d35773c03a2615d5efaf5f49f60b7bb6583eaec212fdf16000806101000a81548173ffffffffffffffffffffffffffffffffffffffff021916908373ffffffffffffffffffffffffffffffffffffffff160217905550620020c96040805190810160405280600c81526020017f6574685f726f707374656e330000000000000000000000000000000000000000815250620023f9565b60019050620023f6565b6000620020f473b7a07bcf2ba2f2703b24c0691b5278999c59ac7e620017c1565b1115620021995773b7a07bcf2ba2f2703b24c0691b5278999c59ac7e6000806101000a81548173ffffffffffffffffffffffffffffffffffffffff021916908373ffffffffffffffffffffffffffffffffffffffff1602179055506200218f6040805190810160405280600981526020017f6574685f6b6f76616e0000000000000000000000000000000000000000000000815250620023f9565b60019050620023f6565b6000620021ba73146500cfd35b22e4a392fe0adc06de1a1368ed48620017c1565b11156200225f5773146500cfd35b22e4a392fe0adc06de1a1368ed486000806101000a81548173ffffffffffffffffffffffffffffffffffffffff021916908373ffffffffffffffffffffffffffffffffffffffff160217905550620022556040805190810160405280600b81526020017f6574685f72696e6b656279000000000000000000000000000000000000000000815250620023f9565b60019050620023f6565b600062002280736f485c8bf6fc43ea212e93bbf8ce046c7f1cb475620017c1565b1115620022e557736f485c8bf6fc43ea212e93bbf8ce046c7f1cb4756000806101000a81548173ffffffffffffffffffffffffffffffffffffffff021916908373ffffffffffffffffffffffffffffffffffffffff16021790555060019050620023f6565b6000620023067320e12a1f859b3feae5fb2a0a32c18f5a65555bbf620017c1565b11156200236b577320e12a1f859b3feae5fb2a0a32c18f5a65555bbf6000806101000a81548173ffffffffffffffffffffffffffffffffffffffff021916908373ffffffffffffffffffffffffffffffffffffffff16021790555060019050620023f6565b60006200238c7351efaf4c8b3c9afbd5ab9f4bbc82784ab6ef8faa620017c1565b1115620023f1577351efaf4c8b3c9afbd5ab9f4bbc82784ab6ef8faa6000806101000a81548173ffffffffffffffffffffffffffffffffffffffff021916908373ffffffffffffffffffffffffffffffffffffffff16021790555060019050620023f6565b600090505b90565b806002908051906020019062002411929190620024b5565b5050565b602060405190810160405280600081525090565b50805460018160011615610100020316600290046000825580601f1062002451575062002472565b601f01602090049060005260206000209081019062002471919062002564565b5b50565b604051612dc5806200258d83390190565b815481835581811511620024b057818360005260206000209182019101620024af919062002564565b5b505050565b828054600181600116156101000203166002900490600052602060002090601f016020900481019282601f10620024f857805160ff191683800117855562002529565b8280016001018555821562002529579182015b82811115620025285782518255916020019190600101906200250b565b5b50905062002538919062002564565b5090565b602060405190810160405280600081525090565b602060405190810160405280600081525090565b6200258991905b80821115620025855760008160009055506001016200256b565b5090565b905600606060405260405162002dc538038062002dc58339810160405280805190602001909190805182019190602001805190602001909190505082600681905550816007908051906020019062000056929190620000a1565b5080600560006101000a81548173ffffffffffffffffffffffffffffffffffffffff021916908373ffffffffffffffffffffffffffffffffffffffff16021790555050505062000150565b828054600181600116156101000203166002900490600052602060002090601f016020900481019282601f10620000e457805160ff191683800117855562000115565b8280016001018555821562000115579182015b8281111562000114578251825591602001919060010190620000f7565b5b50905062000124919062000128565b5090565b6200014d91905b80821115620001495760008160009055506001016200012f565b5090565b90565b612c6580620001606000396000f3006060604052600436106100c5576000357c0100000000000000000000000000000000000000000000000000000000900463ffffffff1680630aea6806146100ca57806321dfb600146100e857806327dc297e1461013157806338bbfa501461019b5780636bc7acb41461024857806391e0d5931461029d578063b06a5c52146102c6578063c37f5bf5146102ef578063cbd126931461030d578063e0d370ac14610336578063ed7a4e0b146103c4578063ee4be28814610419578063f49bff7b14610423575b600080fd5b6100d26104bf565b6040518082815260200191505060405180910390f35b34156100f357600080fd5b61010d60048080356000191690602001909190505061071e565b6040518082600281111561011d57fe5b60ff16815260200191505060405180910390f35b341561013c57600080fd5b61019960048080356000191690602001909190803590602001908201803590602001908080601f0160208091040260200160405190810160405280939291908181526020018383808284378201915050505050509190505061073e565b005b34156101a657600080fd5b61024660048080356000191690602001909190803590602001908201803590602001908080601f0160208091040260200160405190810160405280939291908181526020018383808284378201915050505050509190803590602001908201803590602001908080601f01602080910402602001604051908101604052809392919081815260200183838082843782019150505050505091905050610ae0565b005b341561025357600080fd5b61025b610ae5565b604051808273ffffffffffffffffffffffffffffffffffffffff1673ffffffffffffffffffffffffffffffffffffffff16815260200191505060405180910390f35b34156102a857600080fd5b6102b0610b0b565b6040518082815260200191505060405180910390f35b34156102d157600080fd5b6102d9610b11565b6040518082815260200191505060405180910390f35b6102f7610b17565b6040518082815260200191505060405180910390f35b341561031857600080fd5b610320610d76565b6040518082815260200191505060405180910390f35b341561034157600080fd5b610349610d7c565b6040518080602001828103825283818151815260200191508051906020019080838360005b8381101561038957808201518184015260208101905061036e565b50505050905090810190601f1680156103b65780820380516001836020036101000a031916815260200191505b509250505060405180910390f35b34156103cf57600080fd5b6103d7610e1a565b604051808273ffffffffffffffffffffffffffffffffffffffff1673ffffffffffffffffffffffffffffffffffffffff16815260200191505060405180910390f35b610421610e40565b005b341561042e57600080fd5b610436611087565b6040518084815260200180602001838152602001828103825284818151815260200191508051906020019080838360005b83811015610482578082015181840152602081019050610467565b50505050905090810190601f1680156104af5780820380516001836020036101000a031916815260200191505b5094505050505060405180910390f35b60006104c9612b6c565b60008060095411156104df576009549250610719565b610620606060405190810160405280602a81526020017f68747470733a2f2f6170692e737461636b65786368616e67652e636f6d2f322e81526020017f322f616e73776572732f0000000000000000000000000000000000000000000081525061054a60085461121f565b6040805190810160405280600681526020017f3f736974653d000000000000000000000000000000000000000000000000000081525060078054600181600116156101000203166002900480601f0160208091040260200160405190810160405280929190818152602001828054600181600116156101000203166002900480156106165780601f106105eb57610100808354040283529160200191610616565b820191906000526020600020905b8154815290600101906020018083116105f957829003601f168201915b5050505050611371565b91506106d96040805190810160405280600381526020017f55524c00000000000000000000000000000000000000000000000000000000008152506106d06040805190810160405280600581526020017f6a736f6e28000000000000000000000000000000000000000000000000000000815250856040805190810160405280601781526020017f292e6974656d732e302e6f776e65722e757365725f69640000000000000000008152506113a0565b6207a1206113de565b90506001600b6000836000191660001916815260200190815260200160002060006101000a81548160ff0219169083600281111561071357fe5b02179055505b505090565b600b6020528060005260406000206000915054906101000a900460ff1681565b600061074861192e565b73ffffffffffffffffffffffffffffffffffffffff163373ffffffffffffffffffffffffffffffffffffffff1614151561078157600080fd5b6000600281111561078e57fe5b600b6000856000191660001916815260200190815260200160002060009054906101000a900460ff1660028111156107c257fe5b14156107e5576107d182611c44565b905060008111156107e457806008819055505b5b600160028111156107f257fe5b600b6000856000191660001916815260200190815260200160002060009054906101000a900460ff16600281111561082657fe5b14156108495761083582611c44565b9050600081111561084857806009819055505b5b60028081111561085557fe5b600b6000856000191660001916815260200190815260200160002060009054906101000a900460ff16600281111561088957fe5b1415610adb57600082511180156108a15750602a8251145b15610ada576108af82611c58565b600a60006101000a81548173ffffffffffffffffffffffffffffffffffffffff021916908373ffffffffffffffffffffffffffffffffffffffff160217905550600560009054906101000a900473ffffffffffffffffffffffffffffffffffffffff1673ffffffffffffffffffffffffffffffffffffffff1663a9059cbb600a60009054906101000a900473ffffffffffffffffffffffffffffffffffffffff16600560009054906101000a900473ffffffffffffffffffffffffffffffffffffffff1673ffffffffffffffffffffffffffffffffffffffff166370a08231306000604051602001526040518263ffffffff167c0100000000000000000000000000000000000000000000000000000000028152600401808273ffffffffffffffffffffffffffffffffffffffff1673ffffffffffffffffffffffffffffffffffffffff168152602001915050602060405180830381600087803b1515610a1557600080fd5b6102c65a03f11515610a2657600080fd5b505050604051805190506000604051602001526040518363ffffffff167c0100000000000000000000000000000000000000000000000000000000028152600401808373ffffffffffffffffffffffffffffffffffffffff1673ffffffffffffffffffffffffffffffffffffffff16815260200182815260200192505050602060405180830381600087803b1515610abd57600080fd5b6102c65a03f11515610ace57600080fd5b50505060405180519050505b5b505050565b505050565b600560009054906101000a900473ffffffffffffffffffffffffffffffffffffffff1681565b60095481565b60065481565b6000610b21612b6c565b6000806008541115610b37576008549250610d71565b610c78606060405190810160405280602c81526020017f68747470733a2f2f6170692e737461636b65786368616e67652e636f6d2f322e81526020017f322f7175657374696f6e732f0000000000000000000000000000000000000000815250610ba260065461121f565b6040805190810160405280600681526020017f3f736974653d000000000000000000000000000000000000000000000000000081525060078054600181600116156101000203166002900480601f016020809104026020016040519081016040528092919081815260200182805460018160011615610100020316600290048015610c6e5780601f10610c4357610100808354040283529160200191610c6e565b820191906000526020600020905b815481529060010190602001808311610c5157829003601f168201915b5050505050611371565b9150610d316040805190810160405280600381526020017f55524c0000000000000000000000000000000000000000000000000000000000815250610d286040805190810160405280600581526020017f6a736f6e28000000000000000000000000000000000000000000000000000000815250856040805190810160405280601c81526020017f292e6974656d732e302e61636365707465645f616e737765725f6964000000008152506113a0565b6207a1206113de565b90506000600b6000836000191660001916815260200190815260200160002060006101000a81548160ff02191690836002811115610d6b57fe5b02179055505b505090565b60085481565b60078054600181600116156101000203166002900480601f016020809104026020016040519081016040528092919081815260200182805460018160011615610100020316600290048015610e125780601f10610de757610100808354040283529160200191610e12565b820191906000526020600020905b815481529060010190602001808311610df557829003601f168201915b505050505081565b600a60009054906101000a900473ffffffffffffffffffffffffffffffffffffffff1681565b610e48612b6c565b6000610f8b606060405190810160405280602881526020017f68747470733a2f2f6170692e737461636b65786368616e67652e636f6d2f322e81526020017f322f75736572732f000000000000000000000000000000000000000000000000815250610eb560095461121f565b6040805190810160405280600681526020017f3f736974653d000000000000000000000000000000000000000000000000000081525060078054600181600116156101000203166002900480601f016020809104026020016040519081016040528092919081815260200182805460018160011615610100020316600290048015610f815780601f10610f5657610100808354040283529160200191610f81565b820191906000526020600020905b815481529060010190602001808311610f6457829003601f168201915b5050505050611371565b91506110446040805190810160405280600381526020017f55524c000000000000000000000000000000000000000000000000000000000081525061103b6040805190810160405280600581526020017f6a736f6e28000000000000000000000000000000000000000000000000000000815250856040805190810160405280601281526020017f292e6974656d732e302e6c6f636174696f6e00000000000000000000000000008152506113a0565b6207a1206113de565b90506002600b6000836000191660001916815260200190815260200160002060006101000a81548160ff0219169083600281111561107e57fe5b02179055505050565b6000611091612b6c565b60006006546007600560009054906101000a900473ffffffffffffffffffffffffffffffffffffffff1673ffffffffffffffffffffffffffffffffffffffff166370a08231306000604051602001526040518263ffffffff167c0100000000000000000000000000000000000000000000000000000000028152600401808273ffffffffffffffffffffffffffffffffffffffff1673ffffffffffffffffffffffffffffffffffffffff168152602001915050602060405180830381600087803b151561115d57600080fd5b6102c65a03f1151561116e57600080fd5b50505060405180519050818054600181600116156101000203166002900480601f01602080910402602001604051908101604052809291908181526020018280546001816001161561010002031660029004801561120d5780601f106111e25761010080835404028352916020019161120d565b820191906000526020600020905b8154815290600101906020018083116111f057829003601f168201915b50505050509150925092509250909192565b611227612b6c565b600080611232612b80565b600080861415611279576040805190810160405280600181526020017f30000000000000000000000000000000000000000000000000000000000000008152509450611368565b8593505b6000841415156112a3578280600101935050600a8481151561129b57fe5b04935061127d565b826040518059106112b15750595b9080825280601f01601f191660200182016040525091506001830390505b60008614151561136457600a868115156112e557fe5b066030017f01000000000000000000000000000000000000000000000000000000000000000282828060019003935081518110151561132057fe5b9060200101907effffffffffffffffffffffffffffffffffffffffffffffffffffffffffffff1916908160001a905350600a8681151561135c57fe5b0495506112cf565b8194505b50505050919050565b611379612b6c565b611396858585856020604051908101604052806000815250611f75565b9050949350505050565b6113a8612b6c565b6113d584848460206040519081016040528060008152506020604051908101604052806000815250611f75565b90509392505050565b60008060008060009054906101000a900473ffffffffffffffffffffffffffffffffffffffff1673ffffffffffffffffffffffffffffffffffffffff1614806114505750600061144e6000809054906101000a900473ffffffffffffffffffffffffffffffffffffffff166123ad565b145b156114615761145f60006123b8565b505b6000809054906101000a900473ffffffffffffffffffffffffffffffffffffffff1673ffffffffffffffffffffffffffffffffffffffff166338cc48316000604051602001526040518163ffffffff167c0100000000000000000000000000000000000000000000000000000000028152600401602060405180830381600087803b15156114ee57600080fd5b6102c65a03f115156114ff57600080fd5b5050506040518051905073ffffffffffffffffffffffffffffffffffffffff16600160009054906101000a900473ffffffffffffffffffffffffffffffffffffffff1673ffffffffffffffffffffffffffffffffffffffff16141515611648576000809054906101000a900473ffffffffffffffffffffffffffffffffffffffff1673ffffffffffffffffffffffffffffffffffffffff166338cc48316000604051602001526040518163ffffffff167c0100000000000000000000000000000000000000000000000000000000028152600401602060405180830381600087803b15156115ec57600080fd5b6102c65a03f115156115fd57600080fd5b50505060405180519050600160006101000a81548173ffffffffffffffffffffffffffffffffffffffff021916908373ffffffffffffffffffffffffffffffffffffffff1602179055505b600160009054906101000a900473ffffffffffffffffffffffffffffffffffffffff1673ffffffffffffffffffffffffffffffffffffffff16632ef3accc86856000604051602001526040518363ffffffff167c01000000000000000000000000000000000000000000000000000000000281526004018080602001838152602001828103825284818151815260200191508051906020019080838360005b838110156117025780820151818401526020810190506116e7565b50505050905090810190601f16801561172f5780820380516001836020036101000a031916815260200191505b509350505050602060405180830381600087803b151561174e57600080fd5b6102c65a03f1151561175f57600080fd5b505050604051805190509050823a02670de0b6b3a76400000181111561178b5760006001029150611926565b600160009054906101000a900473ffffffffffffffffffffffffffffffffffffffff1673ffffffffffffffffffffffffffffffffffffffff1663c51be90f8260008888886000604051602001526040518663ffffffff167c0100000000000000000000000000000000000000000000000000000000028152600401808581526020018060200180602001848152602001838103835286818151815260200191508051906020019080838360005b83811015611853578082015181840152602081019050611838565b50505050905090810190601f1680156118805780820380516001836020036101000a031916815260200191505b50838103825285818151815260200191508051906020019080838360005b838110156118b957808201518184015260208101905061189e565b50505050905090810190601f1680156118e65780820380516001836020036101000a031916815260200191505b5096505050505050506020604051808303818588803b151561190757600080fd5b6125ee5a03f1151561191857600080fd5b505050506040518051905091505b509392505050565b6000806000809054906101000a900473ffffffffffffffffffffffffffffffffffffffff1673ffffffffffffffffffffffffffffffffffffffff16148061199e5750600061199c6000809054906101000a900473ffffffffffffffffffffffffffffffffffffffff166123ad565b145b156119af576119ad60006123b8565b505b6000809054906101000a900473ffffffffffffffffffffffffffffffffffffffff1673ffffffffffffffffffffffffffffffffffffffff166338cc48316000604051602001526040518163ffffffff167c0100000000000000000000000000000000000000000000000000000000028152600401602060405180830381600087803b1515611a3c57600080fd5b6102c65a03f11515611a4d57600080fd5b5050506040518051905073ffffffffffffffffffffffffffffffffffffffff16600160009054906101000a900473ffffffffffffffffffffffffffffffffffffffff1673ffffffffffffffffffffffffffffffffffffffff16141515611b96576000809054906101000a900473ffffffffffffffffffffffffffffffffffffffff1673ffffffffffffffffffffffffffffffffffffffff166338cc48316000604051602001526040518163ffffffff167c0100000000000000000000000000000000000000000000000000000000028152600401602060405180830381600087803b1515611b3a57600080fd5b6102c65a03f11515611b4b57600080fd5b50505060405180519050600160006101000a81548173ffffffffffffffffffffffffffffffffffffffff021916908373ffffffffffffffffffffffffffffffffffffffff1602179055505b600160009054906101000a900473ffffffffffffffffffffffffffffffffffffffff1673ffffffffffffffffffffffffffffffffffffffff1663c281d19e6000604051602001526040518163ffffffff167c0100000000000000000000000000000000000000000000000000000000028152600401602060405180830381600087803b1515611c2457600080fd5b6102c65a03f11515611c3557600080fd5b50505060405180519050905090565b6000611c518260006123c9565b9050919050565b6000611c62612b80565b60008060008086945060009350600290505b602a811015611f6857610100840293508481815181101515611c9257fe5b9060200101517f010000000000000000000000000000000000000000000000000000000000000090047f0100000000000000000000000000000000000000000000000000000000000000027f0100000000000000000000000000000000000000000000000000000000000000900492508460018201815181101515611d1357fe5b9060200101517f010000000000000000000000000000000000000000000000000000000000000090047f0100000000000000000000000000000000000000000000000000000000000000027f01000000000000000000000000000000000000000000000000000000000000009004915060618373ffffffffffffffffffffffffffffffffffffffff1610158015611dc1575060668373ffffffffffffffffffffffffffffffffffffffff1611155b15611dd157605783039250611e6b565b60418373ffffffffffffffffffffffffffffffffffffffff1610158015611e0f575060468373ffffffffffffffffffffffffffffffffffffffff1611155b15611e1f57603783039250611e6a565b60308373ffffffffffffffffffffffffffffffffffffffff1610158015611e5d575060398373ffffffffffffffffffffffffffffffffffffffff1611155b15611e69576030830392505b5b5b60618273ffffffffffffffffffffffffffffffffffffffff1610158015611ea9575060668273ffffffffffffffffffffffffffffffffffffffff1611155b15611eb957605782039150611f53565b60418273ffffffffffffffffffffffffffffffffffffffff1610158015611ef7575060468273ffffffffffffffffffffffffffffffffffffffff1611155b15611f0757603782039150611f52565b60308273ffffffffffffffffffffffffffffffffffffffff1610158015611f45575060398273ffffffffffffffffffffffffffffffffffffffff1611155b15611f51576030820391505b5b5b81601084020184019350600281019050611c74565b8395505050505050919050565b611f7d612b6c565b611f85612b80565b611f8d612b80565b611f95612b80565b611f9d612b80565b611fa5612b80565b611fad612b6c565b611fb5612b80565b6000808e98508d97508c96508b95508a94508451865188518a518c5101010101604051805910611fe25750595b9080825280601f01601f1916602001820160405250935083925060009150600090505b88518110156120b857888181518110151561201c57fe5b9060200101517f010000000000000000000000000000000000000000000000000000000000000090047f010000000000000000000000000000000000000000000000000000000000000002838380600101945081518110151561207b57fe5b9060200101907effffffffffffffffffffffffffffffffffffffffffffffffffffffffffffff1916908160001a9053508080600101915050612005565b600090505b87518110156121705787818151811015156120d457fe5b9060200101517f010000000000000000000000000000000000000000000000000000000000000090047f010000000000000000000000000000000000000000000000000000000000000002838380600101945081518110151561213357fe5b9060200101907effffffffffffffffffffffffffffffffffffffffffffffffffffffffffffff1916908160001a90535080806001019150506120bd565b600090505b865181101561222857868181518110151561218c57fe5b9060200101517f010000000000000000000000000000000000000000000000000000000000000090047f01000000000000000000000000000000000000000000000000000000000000000283838060010194508151811015156121eb57fe5b9060200101907effffffffffffffffffffffffffffffffffffffffffffffffffffffffffffff1916908160001a9053508080600101915050612175565b600090505b85518110156122e057858181518110151561224457fe5b9060200101517f010000000000000000000000000000000000000000000000000000000000000090047f01000000000000000000000000000000000000000000000000000000000000000283838060010194508151811015156122a357fe5b9060200101907effffffffffffffffffffffffffffffffffffffffffffffffffffffffffffff1916908160001a905350808060010191505061222d565b600090505b84518110156123985784818151811015156122fc57fe5b9060200101517f010000000000000000000000000000000000000000000000000000000000000090047f010000000000000000000000000000000000000000000000000000000000000002838380600101945081518110151561235b57fe5b9060200101907effffffffffffffffffffffffffffffffffffffffffffffffffffffffffffff1916908160001a90535080806001019150506122e5565b82995050505050505050505095945050505050565b6000813b9050919050565b60006123c26126c3565b9050919050565b60006123d3612b80565b60008060008693506000925060009150600090505b83518110156126a45760307f010000000000000000000000000000000000000000000000000000000000000002848281518110151561242357fe5b9060200101517f010000000000000000000000000000000000000000000000000000000000000090047f0100000000000000000000000000000000000000000000000000000000000000027effffffffffffffffffffffffffffffffffffffffffffffffffffffffffffff19161015801561253b575060397f01000000000000000000000000000000000000000000000000000000000000000284828151811015156124cb57fe5b9060200101517f010000000000000000000000000000000000000000000000000000000000000090047f0100000000000000000000000000000000000000000000000000000000000000027effffffffffffffffffffffffffffffffffffffffffffffffffffffffffffff191611155b156125ec57811561255e576000861415612554576126a4565b8580600190039650505b600a830292506030848281518110151561257457fe5b9060200101517f010000000000000000000000000000000000000000000000000000000000000090047f0100000000000000000000000000000000000000000000000000000000000000027f010000000000000000000000000000000000000000000000000000000000000090040383019250612697565b602e7f010000000000000000000000000000000000000000000000000000000000000002848281518110151561261e57fe5b9060200101517f010000000000000000000000000000000000000000000000000000000000000090047f0100000000000000000000000000000000000000000000000000000000000000027effffffffffffffffffffffffffffffffffffffffffffffffffffffffffffff1916141561269657600191505b5b80806001019150506123e8565b60008611156126b65785600a0a830292505b8294505050505092915050565b6000806126e3731d3b2638a7cc9f2cb3d298a3da7a90b67e5506ed6123ad565b111561278457731d3b2638a7cc9f2cb3d298a3da7a90b67e5506ed6000806101000a81548173ffffffffffffffffffffffffffffffffffffffff021916908373ffffffffffffffffffffffffffffffffffffffff16021790555061277b6040805190810160405280600b81526020017f6574685f6d61696e6e6574000000000000000000000000000000000000000000815250612b52565b60019050612b4f565b60006127a373c03a2615d5efaf5f49f60b7bb6583eaec212fdf16123ad565b11156128445773c03a2615d5efaf5f49f60b7bb6583eaec212fdf16000806101000a81548173ffffffffffffffffffffffffffffffffffffffff021916908373ffffffffffffffffffffffffffffffffffffffff16021790555061283b6040805190810160405280600c81526020017f6574685f726f707374656e330000000000000000000000000000000000000000815250612b52565b60019050612b4f565b600061286373b7a07bcf2ba2f2703b24c0691b5278999c59ac7e6123ad565b11156129045773b7a07bcf2ba2f2703b24c0691b5278999c59ac7e6000806101000a81548173ffffffffffffffffffffffffffffffffffffffff021916908373ffffffffffffffffffffffffffffffffffffffff1602179055506128fb6040805190810160405280600981526020017f6574685f6b6f76616e0000000000000000000000000000000000000000000000815250612b52565b60019050612b4f565b600061292373146500cfd35b22e4a392fe0adc06de1a1368ed486123ad565b11156129c45773146500cfd35b22e4a392fe0adc06de1a1368ed486000806101000a81548173ffffffffffffffffffffffffffffffffffffffff021916908373ffffffffffffffffffffffffffffffffffffffff1602179055506129bb6040805190810160405280600b81526020017f6574685f72696e6b656279000000000000000000000000000000000000000000815250612b52565b60019050612b4f565b60006129e3736f485c8bf6fc43ea212e93bbf8ce046c7f1cb4756123ad565b1115612a4657736f485c8bf6fc43ea212e93bbf8ce046c7f1cb4756000806101000a81548173ffffffffffffffffffffffffffffffffffffffff021916908373ffffffffffffffffffffffffffffffffffffffff16021790555060019050612b4f565b6000612a657320e12a1f859b3feae5fb2a0a32c18f5a65555bbf6123ad565b1115612ac8577320e12a1f859b3feae5fb2a0a32c18f5a65555bbf6000806101000a81548173ffffffffffffffffffffffffffffffffffffffff021916908373ffffffffffffffffffffffffffffffffffffffff16021790555060019050612b4f565b6000612ae77351efaf4c8b3c9afbd5ab9f4bbc82784ab6ef8faa6123ad565b1115612b4a577351efaf4c8b3c9afbd5ab9f4bbc82784ab6ef8faa6000806101000a81548173ffffffffffffffffffffffffffffffffffffffff021916908373ffffffffffffffffffffffffffffffffffffffff16021790555060019050612b4f565b600090505b90565b8060029080519060200190612b68929190612b94565b5050565b602060405190810160405280600081525090565b602060405190810160405280600081525090565b828054600181600116156101000203166002900490600052602060002090601f016020900481019282601f10612bd557805160ff1916838001178555612c03565b82800160010185558215612c03579182015b82811115612c02578251825591602001919060010190612be7565b5b509050612c109190612c14565b5090565b612c3691905b80821115612c32576000816000905550600101612c1a565b5090565b905600a165627a7a723058205348f9d6272734a74ed6eccb5078289667d815b70febf6a6e87910e11830cc6a0029a165627a7a7230582046d730a226cabe14705bcbb5c3b934934a5eb144732ebcb99e60c002517cdbd90029",
  "source": "pragma solidity ^0.4.18;\nimport 'oraclize-api/usingOraclize.sol';\nimport \"zeppelin-solidity/contracts/token/ERC20/MintableToken.sol\";\n\n\ncontract M8Coin is MintableToken{\n    string public name = \"M8 COIN\";\n    string public symbol = \"M8B\";\n    uint8 public decimals = 18;\n}\n\ncontract M8Bounty is usingOraclize{\n    M8Coin public m8;\n\n    uint public questionId;\n    string public site;\n    uint public acceptedAnswerId;\n    uint  public winnerId;\n    address public winnerAddress;\n\n    enum QueryTypes{\n        acceptedAnswerQuery,\n        winnerIdQuery,\n        winnerAddressQuery\n    }\n    mapping (bytes32 => QueryTypes) public queries;\n\n\n    function M8Bounty (uint _questionId, string _site, address _m8Address) public payable {\n        questionId = _questionId;\n        site = _site;\n        m8 = M8Coin(_m8Address);\n    }\n    // 3 oraclize queries are required to determine if there's a person who has an accepted answer\n    // and their eth address is posted in their stackexchange location profile\n    function getAcceptedAnswerId () public payable returns(uint) {\n        if (acceptedAnswerId > 0) {\n            return acceptedAnswerId;\n        }\n        string memory URL = strConcat(\n            \"https://api.stackexchange.com/2.2/questions/\",\n            uIntToStr(questionId),\n            \"?site=\",\n            site\n          );\n        bytes32 queryId = oraclize_query(\n            \"URL\",\n            strConcat(\"json(\",URL,\").items.0.accepted_answer_id\"),\n            500000\n            );\n        queries[queryId] = QueryTypes.acceptedAnswerQuery;\n    }\n\n    function getWinnerId () public payable returns (uint) {\n         if (winnerId > 0) {\n            return winnerId;\n        }\n        string memory URL = strConcat(\n            \"https://api.stackexchange.com/2.2/answers/\",\n            uIntToStr(acceptedAnswerId),\n            \"?site=\",\n            site\n          );\n        bytes32 queryId = oraclize_query(\n            \"URL\",\n            strConcat(\"json(\",URL,\").items.0.owner.user_id\"),\n            500000\n            );\n        queries[queryId] = QueryTypes.winnerIdQuery;\n    }\n\n    function claimBounty () public payable {\n        string memory URL = strConcat(\n            \"https://api.stackexchange.com/2.2/users/\",\n            uIntToStr(winnerId),\n            \"?site=\",\n            site\n          );\n        bytes32 queryId = oraclize_query(\n            \"URL\",\n            strConcat(\"json(\",URL,\").items.0.location\"),\n            500000\n            );\n        queries[queryId] = QueryTypes.winnerAddressQuery;\n    }\n    function __callback(bytes32 queryId, string result) {\n        require(msg.sender == oraclize_cbAddress());\n\n        if (queries[queryId] == QueryTypes.acceptedAnswerQuery) {\n            uint parsedResult = parseInt(result);\n            if(parsedResult > 0) {\n                acceptedAnswerId = parsedResult;\n            }\n        }\n        if (queries[queryId] == QueryTypes.winnerIdQuery) {\n            parsedResult = parseInt(result);\n            if(parsedResult > 0) {\n                winnerId = parsedResult;\n            }\n        }\n\n        if (queries[queryId] == QueryTypes.winnerAddressQuery) {\n            if (bytes(result).length > 0 && bytes(result).length == 42) {\n                winnerAddress = parseAddr(result);\n                m8.transfer(winnerAddress,  m8.balanceOf(this));\n            }\n\n        }\n\n    }\n\n    function getBounty() public view returns (uint, string, uint) {\n        return (questionId, site, m8.balanceOf(this));\n    }\n\n    function uIntToStr(uint i) internal pure returns (string) {\n        if (i == 0) return \"0\";\n        uint j = i;\n        uint len;\n        while (j != 0){\n            len++;\n            j /= 10;\n        }\n        bytes memory bstr = new bytes(len);\n        uint k = len - 1;\n        while (i != 0){\n            bstr[k--] = byte(48 + i % 10);\n            i /= 10;\n        }\n        return string(bstr);\n    }\n}\n\ncontract M8BountyFactory is usingOraclize{\n    // factory craetes the m8 token and instantiates bounty contracts\n    M8Coin public m8;\n    function  M8BountyFactory (address _m8Address) public {\n        m8 = M8Coin(_m8Address);\n        m8.mint(this, 100);\n    }\n    struct DeployedBounty {\n        uint questionId;\n        string site;\n    }\n    address[] public deployedBounties;\n\n    mapping(bytes32 => bool) validQuestions;\n\n    // used for Oraclize queries\n    struct QueryInfo {\n      string site;\n      uint questionId;\n    }\n    mapping(bytes32 => QueryInfo) queryInfo;\n\n    event BountyCreated(uint queryID, string site, address bountyAddress);\n    event QuestionKeyEvent(bytes32);\n\n    // function checks to see if the question exists on stackexchange and should be called before creating bounty.\n   function isValidQuestion(uint _questionId, string _site) public payable{\n        require(_questionId != 0 && bytes(_site).length != 0);\n\n        string memory URL = strConcat(\n            \"https://api.stackexchange.com/2.2/questions/\",\n            uIntToStr(_questionId),\n            \"?site=\",\n            _site\n          );\n        bytes32 queryId = oraclize_query(\n            \"URL\",\n            strConcat(\"json(\",URL,\").items.0.creation_date\"),\n            500000\n            );\n        queryInfo[queryId].site = _site;\n        queryInfo[queryId].questionId =_questionId;\n    }\n    function __callback(bytes32 queryID, string result) {\n        require(msg.sender == oraclize_cbAddress());\n        uint parsedResult = parseInt(result);\n        string memory site =  queryInfo[queryID].site;\n        uint questionId =  queryInfo[queryID].questionId;\n        delete queryInfo[queryID];\n        if (parsedResult > 0) {\n            bytes32 questionKey = makeQuestionKey(questionId, site);\n            validQuestions[questionKey] = true;\n            QuestionKeyEvent(questionKey);\n        }\n    }\n\n    function createBounty(uint _questionId, string _site) public payable{\n        require(_questionId != 0 && bytes(_site).length != 0);\n        // require question doesn't already exist.\n        bytes32 questionKey = makeQuestionKey(_questionId, _site);\n        // require(validQuestions[questionKey] == true);\n\n        address newBounty = new M8Bounty(_questionId, _site, m8);\n        m8.transfer(newBounty, 10);\n        deployedBounties.push(newBounty);\n        BountyCreated(_questionId, _site, newBounty);\n    }\n\n    function getDeployedBounties() public view returns (address[]) {\n        return deployedBounties;\n    }\n    function makeQuestionKey(uint _questionId, string _site) public pure returns(bytes32){\n        string memory question = strConcat(uIntToStr(_questionId), ',' , _site);\n        bytes32 key = keccak256(question);\n        return key;\n    }\n    function uIntToStr(uint i) internal pure returns (string) {\n        if (i == 0) return \"0\";\n        uint j = i;\n        uint len;\n        while (j != 0){\n            len++;\n            j /= 10;\n        }\n        bytes memory bstr = new bytes(len);\n        uint k = len - 1;\n        while (i != 0){\n            bstr[k--] = byte(48 + i % 10);\n            i /= 10;\n        }\n        return string(bstr);\n    }\n\n}\n",
  "sourcePath": "/Users/s/code/ethereum/m8/contracts/M8BountyFactory.sol",
  "compiler": {
    "name": "solc",
    "version": "0.4.19+commit.c4cbbb05.Emscripten.clang"
  },
  "schemaVersion": "2.0.0",
  "updatedAt": "2018-08-27T18:11:57.039Z"
}