{
  "contractName": "M8Bounty",
  "abi": [
    {
      "constant": true,
      "inputs": [],
      "name": "wft",
      "outputs": [
        {
          "name": "",
          "type": "uint256"
        }
      ],
      "payable": false,
      "stateMutability": "view",
      "type": "function"
    }
  ],
  "bytecode": "0x60606040523415600e57600080fd5b609c8061001c6000396000f300606060405260043610603f576000357c0100000000000000000000000000000000000000000000000000000000900463ffffffff168063b0122514146044575b600080fd5b3415604e57600080fd5b6054606a565b6040518082815260200191505060405180910390f35b600054815600a165627a7a72305820813f070391812a44bf34aa5bc2ba97783e27cd1dfebe0171990fd532b16bbde20029",
  "source": "pragma solidity ^0.4.18;\n/* import 'oraclize-api/usingOraclize.sol'; */\n/* import './M8Coin.sol'; */\n\ncontract M8Bounty{\n    /* M8Coin public m8; */\n    uint public wft;\n}\n",
  "sourcePath": "/Users/s/code/ethereum/m8/contracts/M8Bounty.sol",
  "compiler": {
    "name": "solc",
    "version": "0.4.19+commit.c4cbbb05.Emscripten.clang"
  },
  "schemaVersion": "2.0.0",
  "updatedAt": "2018-08-27T18:11:55.903Z"
}